32537032829VINICIUS LIMA DUARTE     AVENIDA DAS NACOES, 1000 MG   318699015200085222200000020330
66666666600AUGUSTO MARTINS SILVA    RUA DONA LAURA, 255 MG        318522221000001520250000015200
99999999900JESSICA SOUZA COELHO     ALAMEDA LINS E LINS, 255 MG   318896144400014700600000009025
