33650150867TIAGO TORQUATO JUNIOR    AVENIDA DOS ORIXAS, 500 RJ    212599514700015000250000016200
44444444400MARIA ISABEL ADELINA     RUA DAS OLIVEIRAS, 699 RJ     212255102200000155000000002500
77777777700GUILHERME AMARAL         RUA ABEL FERREIRA, 7880 RJ    212633101000050050100000001500
