11111111100LUCAS OLIVEIRA ROCHA     ALAMEDA DOS SONHOS, 12 SP     114427200000001235100000000100
32379495823GRACIELE DE OLIVEIRA     RUA MARIA CORDEIRO, 30 SP     118562105600002000002011010031
33718136813ERIK FRANCISCO ALVES     RUA NOSSA SENHORA, 23 SP      114339721800000002192011010031
37140149852FAUSTO LOPES MENDONCA    RUA TORQUATO, 35 SP           117438794800000250001997010029
39560271830JOSE APARECIDO DA SILVA  RUA DOS COQUEIRAIS, 520 SP    114461179900001002500000002050
55555555500MARIA SEVERINA FONSECA   AVENIDA DR. CASTRO, 1200 SP   114997523600000510250000015025
