0001000001ALBERTO FLORES DE SOUZA E SILVA         11227112360000000180050
0001000002CARLA CRISTINA RODRIGUES ROSA           19335454390000000350020
0001000004LUCIANO DE CAMPOS VALE                  13330477220000000695030
0001000005GISELE MARTINS REIS AMADA               16342188650000000089015
0002000001SILVIO SOARES DE OLIVEIRA               11457699150000000099123
