0001000001ALBERTO FLORES DE SOUZA                 1122711236000000015000120110826102555
0001000002CARLA CRISTINA ALMEIDA RODRIGUES        1132511439000000335001520110731113335
0001000003PAULINA TAVARES EMERENCIANO             1157448751000000007882720110828164921
0002000001SILVIO SOARES DE OLIVEIRA               1145769915000001689783920110829083015
